:10191F0043035B05020043035E200201430361356D
:10192F003230550364596F752061726520626561AD
:10193F0075746966756C210D0A0060250379496617
:10194F0020796F75206C6F7665206D652C706C65D6
:10195F00617365206C6574206D65206B6E6F7721E8
:03196F000D0A005E
:1021E100759850438E40538EFE53890F758BEE7553
:0721F1008DD2C2ABD28E2299
:1017F00020B23C7F647E0012006620B2327D017F01
:10180000011221747D017F02122174D2CD90039FB9
:10181000E0245BF582E43403F583E0FDE4FF12206D
:10182000E490039FE004F0E0D394024002E4F0204F
:10183000B3587F647E0012006620B34EE4FD7F0142
:10184000122174E4FD7F02122174C2CD9003A0E046
:10185000FF245EF582E43403F583E0F4F590D2AC26
:10186000D2AF74612FF582E43403F583E0F599304B
:1018700099FDC2999003A0E004F0E0D39402400ADD
:10188000E4F075997C3099FDC29920B6477F647E5B
:101890000012006620B63DE4FD7F01122174E4FDD4
:1018A0007F02122174D2CDD2ACD2AFE490039EF06D
:1018B00090039EE0FFC39415501A74642FF582E4E0
:1018C0003403F583E0F5993099FDC29990039EE0C9
:1018D00004F080DC20B7477F647E0012006620B7EA
:1018E0003DE4FD7F01122174E4FD7F02122174D2D8
:1018F000CDD2ACD2AFE490039EF090039EE0FFC344
:101900009425501A74792FF582E43403F583E0F5B9
:0F191000993099FDC29990039EE004F080DC228B
:082332001221E11217F080FBFB
:0D1972004A03DE3F065B4F666D7D077F6F09
:10217400EFB4010DEDB40103C2C422ED7013D2C457
:1021840022EFB4020CEDB40103C2C322ED7002D2FB
:02219400C32264
:1020E400EFB4011074DE2DF582E43403F583E0448B
:1020F40080F59022EF700D74DE2DF582E43403F543
:0521040083E0F59022CC
:1021F800E4FDFCC3ED9FEC9E500B7B06DBFE0DBDA2
:0522080000010C80EE56
:01220D0022AE
:0C00460043D102E4F5D5F5D443D10822E3
:030026000200468F
:0C22F500C2937F2D7E001221F8D29322AC
:101FA6001222F53092FDAFD4EFFEADD57C00E42DC4
:101FB600FFEC3E9003FDF0A3EFF02092FDAFD4EFCF
:101FC600FEADD57C00E42DFFEC3E9003FFF0A3EFC1
:101FD600F09003FDE0FEA3E0FFC3900400E09FFF46
:101FE6009003FFE09EFE7D1812041F7C007D3A12CE
:021FF600041FC6
:011FF80022C6
:0D197F004A03C60000000000000000000048
:1021C900759A1075D78F75D6FD758E14E49003D165
:0821D900F09003D0F0C20522D2
:0B1D83009003F8EBF0A3EAF0A3E9F0F6
:101D8E00E4A3F0A3F0FCECC39D50249003F8E0FB19
:101D9E00A3E0FAA3E0F98C827583001203BEFF90D4
:101DAE0003FCE02FF09003FBE03400F00C80D790A2
:101DBE0003FBE0FEA3E0FFC3E49FFFE49E9003FB62
:101DCE00F0A3EFF09003FBE0FF9003F8E0FBA3E03D
:101DDE00FAA3E0F98C82758300EF1203FD9003FBEA
:101DEE00A3E0FFEC7C0029F9EC3AFA900001EF0237
:021DFE0003FDE3
:102289002005FDD2058F9BE59A30E1FB539AFDC2EB
:0222990005221C
:02210900AE071F
:10210B00E4FD7F7E122289EDC39E501274C62DF51D
:10211B0082E43403F583E0FF1222890D80E97FEF1F
:03212B0002228904
:1020BE009003C674FFF0A37406F0A3EFF0A3EDF047
:1020CE00EAA3F0A3EBF07B017A0379C67D06121D1D
:0620DE00837F08022109C6
:0E0A17009003B6EFF0A3EBF0A3EAF0A3E9F032
:100A2500A3120618000000009003BE12061800006D
:100A350000009003C2120618000000009003BA12CD
:100A4500061846EA60009003B7E0FBA3E0FAA3E0CE
:100A5500F99000011205AC7BCD7ACC790C783F1268
:100A6500017EA804A905AA06AB077F007EC07D7399
:100A75007C44120089E4FBFA797A78441202879063
:100A850003BE12060C75BA8090FFF2740FF0900346
:100A9500BAE0FCA3E0FDA3E0FEA3E0FF120324906F
:100AA500FFF0EEF0A3EFF09003B6E0B408004003CA
:100AB500020D13900ABFF8282873020AD7020B1FEC
:100AC500020B67020BAF020BF7020C3F020C870209
:100AD5000CCE90FF00E4F0A3F09003BEE0FCA3E091
:100AE500FDA3E0FEA3E0FF9003BAE0F8A3E0F9A3BD
:100AF500E0FAA3E0FB12017E12032490FF02EEF060
:100B0500A3EFF09003B7E0FBA3E0FAA3E0F912032B
:100B1500A5448090FF04F0020D1390FF10E4F0A3AC
:100B2500F09003BEE0FCA3E0FDA3E0FEA3E0FF9090
:100B350003BAE0F8A3E0F9A3E0FAA3E0FB12017E13
:100B450012032490FF12EEF0A3EFF09003B7E0FB41
:100B5500A3E0FAA3E0F91203A5448090FF14F00284
:100B65000D1390FF20E4F0A3F09003BEE0FCA3E09A
:100B7500FDA3E0FEA3E0FF9003BAE0F8A3E0F9A32C
:100B8500E0FAA3E0FB12017E12032490FF22EEF0AF
:100B9500A3EFF09003B7E0FBA3E0FAA3E0F912039B
:100BA500A5448090FF24F0020D1390FF30E4F0A3DC
:100BB500F09003BEE0FCA3E0FDA3E0FEA3E0FF9000
:100BC50003BAE0F8A3E0F9A3E0FAA3E0FB12017E83
:100BD50012032490FF32EEF0A3EFF09003B7E0FB91
:100BE500A3E0FAA3E0F91203A5448090FF34F002D4
:100BF5000D1390FF40E4F0A3F09003BEE0FCA3E0EA
:100C0500FDA3E0FEA3E0FF9003BAE0F8A3E0F9A39B
:100C1500E0FAA3E0FB12017E12032490FF42EEF0FE
:100C2500A3EFF09003B7E0FBA3E0FAA3E0F912030A
:100C3500A5448090FF44F0020D1390FF50E4F0A30B
:100C4500F09003BEE0FCA3E0FDA3E0FEA3E0FF906F
:100C550003BAE0F8A3E0F9A3E0FAA3E0FB12017EF2
:100C650012032490FF52EEF0A3EFF09003B7E0FBE0
:100C7500A3E0FAA3E0F91203A5448090FF54F00223
:100C85000D1390FF60E4F0A3F09003BEE0FCA3E039
:100C9500FDA3E0FEA3E0FF9003BAE0F8A3E0F9A30B
:100CA500E0FAA3E0FB12017E12032490FF62EEF04E
:100CB500A3EFF09003B7E0FBA3E0FAA3E0F912037A
:100CC500A5448090FF64F0804590FF70E4F0A3F0A8
:100CD5009003BEE0FCA3E0FDA3E0FEA3E0FF9003CC
:100CE500BAE0F8A3E0F9A3E0FAA3E0FB12017E1253
:100CF500032490FF72EEF0A3EFF09003B7E0FBA39F
:100D0500E0FAA3E0F91203A5448090FF74F0E4F53E
:040D1500BA75FE802D
:010D190022B7
:10198C004C03260000000000000000000000004C8A
:10199C00030E0000000000000000000000004C03DB
:1019AC001A0000000000000000000000004D034C75
:1019BC00000000000000000000000000004D033299
:1019CC00000000000000000000000000004D033F7C
:0D19DC0000000000000000000000000000FE
:09230D00007F027E8CDEFEDFFC85
:0123160022A4
:101FF9009003F6E0FE2432F582E43403F583E0FF32
:10200900744C2EF582E43403F583E0FD743F2AF520
:0F20190082E43403F583E0FB121E7F7F647E00B8
:10202800E4FDFCC3ED9FEC9E50100079207B28DB7B
:0A203800FED9FC0DBD00010C80E98B
:01204200227B
:10212E00D29200000000000000000000000000003D
:10213E00000000000000C29200000000000000003D
:03214E000000226C
:10215100D29200000000000000000000C2920000C6
:10216100000000000000000000000000000000006E
:0321710000002249
:05000600C29202230D6F
:041E7B00E4FBFDFF88
:021E7F00A907B1
:101E8100E4FFFEAC07E9A804088002C333D8FCF9DB
:101E910030E00512212E80031221510FBF00010EE7
:101EA100EF64084E70DDE4FEFFAC07EDA804088086
:101EB10002C333D8FCFD30E00512212E800312212C
:101EC100510FBF00010EEF64084E70DDE4FEFFAD5F
:101ED10007EBA805088002C333D8FCFB30E00512EC
:101EE100212E80031221510FBF00010EEF64084E15
:021EF10070DDA2
:011EF30022CC
:0D1017009003F2EDF0A3EBF09003F1EFF089
:10102400E4FA9003F704F0EF60030210C37F01FEBB
:10103400122028E49003F6F09003F6E0FFC3940C2A
:10104400503B9003F2E0FE740E2FF582E43403F576
:1010540083EEF09003F3E0FE74262FF582E434036C
:10106400F583EEF09003F4E0FE741A2FF582E43475
:1010740003F583EEF09003F6E004F080BBE4900304
:10108400F6F09003F6E0FEC3940C40030212F7E07E
:10109400FD240EF582E43403F583E0FF74262DF578
:1010A40082E43403F583E0FD741A2EF582E43403FC
:1010B400F583E0FB121E7F9003F6E004F080C390FA
:1010C40003F1E0640160030211707F01FE12202825
:1010D400E49003F6F09003F6E0FFD3940C503B90B9
:1010E40003F2E0FE74322FF582E43403F583EEF06C
:1010F4009003F3E0FE744C2FF582E43403F583EEA1
:10110400F09003F4E0FE743F2FF582E43403F5839A
:10111400EEF09003F6E004F080BBE49003F6F09068
:1011240003F6E0FED3940C40030212F7E0FD2432F0
:10113400F582E43403F583E0FF744C2DF582E43446
:1011440003F583E0FD743F2E122018120006E4908C
:1011540003F6F09003F6E0C39A5008121E7BE004F5
:10116400F080F00A9003F6E004F080B39003F1E01D
:101174006402600302121F7F01FE122028E4900320
:10118400F6F09003F6E0FFD3940C503B9003F2E0AA
:10119400FE74322FF582E43403F583EEF09003F30A
:1011A400E0FE744C2FF582E43403F583EEF09003F3
:1011B400F4E0FE743F2FF582E43403F583EEF090FF
:1011C40003F6E004F080BBE49003F5F09003F7E04D
:1011D400FFC3740C9F9003F6F09003F6E0FAD394E7
:1011E400004008121E7BE014F080EE121FF99003F9
:1011F400F7E004F0E0D3940C40037401F09003F59D
:10120400E004F0E0C3940C40C37F017E0012202868
:10121400E49003F4F0FBFD1F0210179003F1E06467
:101224000360030212F77F01FE122028E49003F604
:10123400F09003F6E0FFD3940C503B9003F2E0FEF1
:1012440074322FF582E43403F583EEF09003F3E077
:10125400FE744C2FF582E43403F583EEF09003F42E
:10126400E0FE743F2FF582E43403F583EEF090033F
:10127400F6E004F080BB9003F5740CF09003F7E003
:10128400FFC3740C9F9003F6F09003F6E0FAD39436
:10129400004008121E7BE014F080EE121FF9900348
:1012A400F7E004F0E0FFC3740D9F9003F6F09003A1
:1012B400F6E0D394004008121E7BE014F080EF9017
:1012C40003F7E0D3940C40037401F09003F5E014A9
:1012D400F0E0D3940050A57F017E00122028E49012
:1012E40003F6F0121E7B9003F6E004F0E0C39418BA
:0312F40040F122A4
:0112F70022D4
:03002B0002000EC2
:04000E0053BCDF32CE
:101F5000E4F5921203A542919000011203BEFFE541
:101F6000BC549F4FF5BC9000021203BEB401054360
:101F7000BC80800353BC7F9000031203BEB40105F4
:101F800043DE20800353DEDF9000051203BEB40160
:101F900004D2AD8002C2AD9000041203BEB40103AE
:061FA000D2BD22C2BD22E9
:0C230100EFB4010443BC802253BC7F22D7
:101EF400EFD394074002804FE4F5BDF5BEE5BC5432
:101F0400E044404FF5BC0000E4FBE5BC30E533534E
:101F1400BCDFE5DE30E509E5BD5403ADBEFC801D44
:101F2400AFBD7C00AD07ED7E007802C333CE33CE67
:101F3400D8F9FFE5BE5403FDEEFCEF4DFDAF05AE51
:0B1F440004220BEBB4FAC37E047F0004
:011F4F00226F
:10006600E4FDFCC3ED9FEC9E50100079207B28DB5D
:0A007600FED9FC0DBD00010C80E96D
:01008000225D
:10220E00E4FDFCC3ED9FEC9E500B7B06DBFE0DBD8B
:05221E0000010C80EE40
:012223002298
:0D002E00E4F5C7F5C5F5C675C380F5C4221D
:1021B00075C78175C5018FC4EEFF8FC375C65A758B
:0821C000C6A500AFC212002EFB
:0121C80022F4
:1022240075C78175C5038FC4EEFF8FC375C65A7514
:06223400C6A50002002E09
:1021960075C78175C5028FC4EEFF8FC3AF058FC2A9
:0A21A60075C65A75C6A50002002E8A
:03000300020012E6
:0100120032BB
:0300130002001ACE
:01001A0032B3
:0300530002002286
:0100220032AB
:03005B0002002977
:0100290032A4
:0300830002002A4E
:01002A0032A3
:1019EA00EFD3941040037F0122EF702D9000021272
:1019FA0003BEB40104D2A88002C2A8900001120357
:101A0A00BEB40104D2B88002C2B81203A5B401045C
:101A1A00D2888002C2887F0022EF6402702D900073
:101A2A00021203BEB40104D2AA8002C2AA90000123
:101A3A001203BEB40104D2BA8002C2BA1203A5B418
:101A4A000104D28A8002C28A7F0022EFB40A14906B
:101A5A0000021203BEB40105438F108003538FEFB7
:101A6A007F0022EFB40B149000021203BEB40105EA
:101A7A00438F208003538FDF7F0022EFB41014902E
:101A8A0000021203BEB40105438F408003538FBF87
:061A9A007F00227F022202
:1012F800EFD3940540037F01221203A5FED3940384
:1013080040037F0222EF7041EE700B900001120340
:10131800BEF4529352941203A5B4010B900001122B
:1013280003BE4293F452941203A5FEB4020A90003D
:10133800011203BE42934294EEB4030D90000112D1
:1013480003BEFEF45293EE4294EF6401704312031D
:10135800A5FE700B9000011203BEF452915292EE5A
:10136800B4010B9000011203BE4291F45292120391
:10137800A5B4020A9000011203BE429142921203E0
:10138800A5B4030D9000011203BEFEF45291EE4283
:1013980092EF640270431203A5FE700B90000112D5
:1013A80003BEF452955296EEB4010B90000112035D
:1013B800BE4295F452961203A5B4020A9000011297
:1013C80003BE429542961203A5B4030D9000011284
:1013D80003BEFEF45295EE4296EF64037043120387
:1013E800A5FE700B9000011203BEF452B152B2EE8A
:1013F800B4010B9000011203BE42B1F452B21203C1
:10140800A5B4020A9000011203BE42B142B212030F
:10141800A5B4030D9000011203BEFEF452B1EE42D2
:10142800B2EF640470431203A5FE700B9000011222
:1014380003BEF452B352B4EEB4010B900001120390
:10144800BE42B3F452B41203A5B4020A90000112CA
:1014580003BE42B342B41203A5B4030D90000112B7
:1014680003BEFEF452B3EE42B4EF640570431203B8
:10147800A5FF700B9000011203BEF452C952CAEFC7
:10148800B4010B9000011203BE42C9F452CA120300
:10149800A5B4020A9000011203BE42C942CA12034F
:1014A800A5B4030D9000011203BEFFF452C9EF4228
:0414B800CA7F0022C5
:10204300EF700C90FE8074E0F090FE82E4F022EFDB
:10205300B4011875BA8090FE807481F090FE857487
:0C2063005AF090FE84E4F090FE83F0221E
:101C7D00D203D204E4900404F0E02400F8E290FED4
:101C8D0086F090FE84E030E605E054BFF02290FE31
:101C9D0084E030E52DE054DFF0300303C203223041
:101CAD00040DC20490FE87E0900404F0E0802F90B4
:101CBD00FE87E0FF900404E0FE04F074002EF8EFC0
:101CCD00F22290FE84E030E41EE054EFF0E030E1CB
:101CDD000790FE8674FFF022900404E004F02400C7
:101CED00F8E290FE86F02290FE84E030E308E054A6
:071CFD00F7F0D203D204222C
:0F22AC0090FE82E030E6F990FE82E054BFF0220F
:0923170090FE817401F00222AC79
:0E22D90090FE86EFF090FE817402F00222ACBF
:0923200090FE817403F00222AC6E
:0F22BB0090FE817404F01222AC90FE87E0FF22A7
:0E22E70090FE82E4F090FE817405F00222ACBD
:0F22CA0090FE827401F090FE817405F00222AC48
:0923290090FE817406F00222AC62
:10225000E4FFFE000000000FBF00010EBE0BF4BF44
:02226000B8F1D3
:012262002259
:03003B00021B4E57
:101B4E00C0E0C083C082C0D075D000C006C00730D0
:101B5E00D82AC2D830A5059003AA80039003A4E02A
:101B6E00FEA3E0FF9003B1E02FF09003B0E03EF053
:101B7E009003B0E0FEA3E0F5EAEEF5FA30D92AC202
:101B8E00D930A6059003AC80039003A6E0FEA3E037
:101B9E00FF9003B3E02FF09003B2E03EF09003B25B
:101BAE00E0FEA3E0F5EBEEF5FB30DA2AC2DA30A761
:101BBE00059003AE80039003A8E0FEA3E0FF900320
:101BCE00B5E02FF09003B4E03EF09003B4E0FEA336
:101BDE00E0F5ECEEF5FCD007D006D0D0D082D08365
:031BEE00D0E03212
:101AA000EF7034D3ED9450EC940F40047C0F7D50D4
:101AB000C3ED9450EC940050047C007D50C2DE9045
:101AC00003AAECF0A3EDF0C374A09D9003A5F074FD
:101AD0000F9C9003A48073EF64017034D3ED94687D
:101AE000EC940B40047C0B7D68C3ED9450EC9400A7
:101AF00050047C007D50C2DE9003ACECF0A3EDF00E
:101B0000C374B89D9003A7F0740B9C9003A6803A11
:101B1000EF64027038D3ED9480EC940740047C07A6
:101B20007D80C3ED9450EC940050047C007D50C245
:101B3000DE9003AEECF0A3EDF0AE04FFC374D09FD3
:0E1B40009003A9F074079E9003A8F0D2DE2255
:10223A00EF70038DFA22EFB401038DFB22EFB40293
:06224A0004AF058FFC2229
:10165700900401EBF0A3EAF0A3E9F0AD07EDD39412
:101667000340030217EFED64037046C2DEF5F9F598
:10167700E9900401E0FBA3E0FAA3E0F91203A5F562
:10168700A29000011203BEFFE5D954F14FF5D9909E
:1016970000041203BE5401FFE5D954FE4FF5D9905B
:1016A70000051203BEB40104D2BF8002C2BFD2DE5E
:1016B70022900401E0FBA3E0FAA3E02404F9E43A52
:1016C700FA1203A554311203EB900401E0FBA3E0E7
:1016D700FAA3E0F99000021203BEC39448400FE951
:1016E7002404F9E43AFA1203A554CF1203EBED7080
:1016F7004F900401E0FBA3E0FAA3E0F99000041285
:1017070003BEFF9000021203BEFE4FF5DA900003FE
:101717001203BEFFE5F2543F4FF5F29000061204A4
:1017270074FBAAF09003AAEAF0A3EBF0C2009003BF
:10173700A1EEF09003B0EAF0A3EBF0F5EAEAF5FAD0
:10174700ED6401704F900401E0FBA3E0FAA3E0F918
:101757009000041203BEFF9000021203BEFE4FF575
:10176700DB9000031203BEFFE5F3543F4FF5F39000
:101777000006120474FBAAF09003ACEAF0A3EBF0A6
:10178700C2019003A2EEF09003B2EAF0A3EBF0F5EA
:10179700EBEAF5FBED6402704F900401E0FBA3E078
:1017A700FAA3E0F99000041203BEFF9000021203AF
:1017B700BEFE4FF5DC9000031203BEFFE5F4543F75
:1017C7004FF5F4900006120474FDACF09003AEECF4
:1017D700F0A3EDF0C2029003A3EEF09003B4ECF097
:0917E700A3EDF0F5ECECF5FC2299
:0E0D1A009003D2EFF0A3EBF0A3EAF0A3E9F010
:100D2800A3120618000000009003DA12061800004B
:100D380000009003D3E0FBA3E0FAA3E0F9900005DC
:100D48001205DC7F007E1B7DB77C49120287900369
:100D5800D612060C9003D3E0FBA3E0FAA3E0F990C7
:100D680000011205DCE4FFFE7D7A7C44120089E470
:100D7800FBFA797A78441202879003DA12060C7526
:100D8800BA8090FFF2740FF09003D6E0FCA3E0FD68
:100D9800A3E0FEA3E0FF12032490FFF0EEF0A3EF20
:100DA800F09003D2E0B408004003021010900DBC8C
:100DB800F8282873020DD4020E1C020E64020EAC31
:100DC800020EF4020F3C020F84020FCB90FF00E4E6
:100DD800F0A3F09003DAE0FCA3E0FDA3E0FEA3E0BB
:100DE800FF9003D6E0F8A3E0F9A3E0FAA3E0FB1232
:100DF800017E12032490FF02EEF0A3EFF09003D3DC
:100E0800E0FBA3E0FAA3E0F91203A5448090FF04F5
:100E1800F002101090FF10E4F0A3F09003DAE0FC69
:100E2800A3E0FDA3E0FEA3E0FF9003D6E0F8A3E073
:100E3800F9A3E0FAA3E0FB12017E12032490FF124B
:100E4800EEF0A3EFF09003D3E0FBA3E0FAA3E0F900
:100E58001203A5448090FF14F002101090FF20E4C4
:100E6800F0A3F09003DAE0FCA3E0FDA3E0FEA3E02A
:100E7800FF9003D6E0F8A3E0F9A3E0FAA3E0FB12A1
:100E8800017E12032490FF22EEF0A3EFF09003D32B
:100E9800E0FBA3E0FAA3E0F91203A5448090FF2445
:100EA800F002101090FF30E4F0A3F09003DAE0FCB9
:100EB800A3E0FDA3E0FEA3E0FF9003D6E0F8A3E0E3
:100EC800F9A3E0FAA3E0FB12017E12032490FF329B
:100ED800EEF0A3EFF09003D3E0FBA3E0FAA3E0F970
:100EE8001203A5448090FF34F002101090FF40E4F4
:100EF800F0A3F09003DAE0FCA3E0FDA3E0FEA3E09A
:100F0800FF9003D6E0F8A3E0F9A3E0FAA3E0FB1210
:100F1800017E12032490FF42EEF0A3EFF09003D37A
:100F2800E0FBA3E0FAA3E0F91203A5448090FF4494
:100F3800F002101090FF50E4F0A3F09003DAE0FC08
:100F4800A3E0FDA3E0FEA3E0FF9003D6E0F8A3E052
:100F5800F9A3E0FAA3E0FB12017E12032490FF52EA
:100F6800EEF0A3EFF09003D3E0FBA3E0FAA3E0F9DF
:100F78001203A5448090FF54F002101090FF60E423
:100F8800F0A3F09003DAE0FCA3E0FDA3E0FEA3E009
:100F9800FF9003D6E0F8A3E0F9A3E0FAA3E0FB1280
:100FA800017E12032490FF62EEF0A3EFF09003D3CA
:100FB800E0FBA3E0FAA3E0F91203A5448090FF64E4
:100FC800F0804590FF70E4F0A3F09003DAE0FCA312
:100FD800E0FDA3E0FEA3E0FF9003D6E0F8A3E0F96C
:100FE800A3E0FAA3E0FB12017E12032490FF72EE45
:100FF800F0A3EFF09003D3E0FBA3E0FAA3E0F9122B
:0E10080003A5448090FF74F0E4F5BA75FE80F5
:0110160022B7
:03000B00020041AF
:01004100328C
:03001B000200429E
:01004200328B
:0300630002005246
:01005200327B
:1014BC00AD07EDD3940240037F0122ED60030215CA
:1014CC0050C28C9000021203BEB40104D2A9800257
:1014DC00C2A99000011203BEB40104D2B98002C2A9
:1014EC00B91203A5FED3940340037F0222E589546D
:1014FC00FC4EF5899000031203BEFFB40103538E1A
:10150C007FEF7003438E80EFB402054389048003A0
:10151C005389FB9000041203BEB40105438F018074
:10152C0003538FFE900005120474E5F0F58C9000C7
:10153C0005120474F58A9000071203BEB40102D29E
:10154C008C7F0022ED640160030215DBC28E9000DB
:10155C00021203BEB40104D2AB8002C2AB900001F4
:10156C001203BEB40104D2BB8002C2BB1203A5FE9F
:10157C00C3940340037F0222E58954CF4EF5899032
:10158C0000031203BEFFB40103538EBFEF7003437D
:10159C008E40EFB4020543894080035389BF90000D
:1015AC00041203BEB40105438F028003538FFD90D8
:1015BC000005120474E5F0F58D900005120474F525
:1015CC008B9000071203BEB40102D28E7F0022ED75
:1015DC0064027074538EEF9000021203BEB40105C6
:1015EC0043AF04800353AFFB9000031203BEFED342
:1015FC00940240037F0222EEB40103538EFB900051
:10160C00031203BE7003438E049000031203BEB496
:10161C000205438E088003538EF79000041203BE1C
:10162C00B40105438F048003538FFB900005120413
:10163C0074FDACF0ECF5D68DD79000071203BEB458
:0B164C000103438E107F00227F02226A
:10229B00E59A30E103539AFDE59A30E003539AFE39
:0122AB002210
:03002300021D04B7
:101D0400C0E0C083C082C0D075D000C006C0073018
:101D1400982DC298900106E07025900104E0C394C8
:101D2400804002E4F0900104E0FF04F0740E2FF50B
:101D340082E43401F583E599F09001057405F030EF
:101D44009930C299900102E0FF900101E0FE6F60BA
:101D54001C740E2EF582E43402F583E0F5999001AB
:101D640001E004F0C394804009E4F080059001038D
:0F1D7400E4F0D007D006D0D0D082D083D0E032B8
:03004300021E009A
:101E0000C0E0C083C082C0D075D000C006C0071239
:101E1000229B90010DE0702590010BE0C39480405F
:101E200002E4F090010BE0FF04F0748E2FF582E4E1
:101E30003401F583E59BF090010C7405F012229BB0
:101E4000900109E0FF900108E0FE6F601C748E2E87
:101E5000F582E43402F583E0F59B900108E004F09C
:101E6000C394804009E4F0800590010AE4F0D007B3
:0B1E7000D006D0D0D082D083D0E0326A
:1006B3009003E9EBF0A3EAF0A3E9F09003E8EFF08D
:1006C300640160030208B490010004F0E4A3F0A302
:1006D300F0A3F0A3F0A3F0A3F09003ECF09003ECED
:1006E300E0FFC394805014740E2FF582E43402F5B6
:1006F30083E4F09003ECE004F080E2E49003ECF098
:100703009003ECE0FFC394805014740E2FF582E441
:100713003401F583E4F09003ECE004F080E290030D
:10072300E9E0FBA3E0FAA3E0F91203A5D394C040E8
:10073300037F022290000A1203BEB40104D2BC80DC
:1007430002C2BC1203A5FFE598543F4FF598EF642E
:10075300C06008EF6440600302083F900002120586
:10076300DC7F807E8D7D5B7C001204E89003ED12BC
:10077300060CE4FFFE7D01FC9003EDE0F8A3E0F935
:10078300A3E0FAA3E0FBC312058840037F02229093
:1007930003EDE0F8A3E0F9A3E0FAA3E0FBC3E49BD5
:1007A300FFE49AFE740199FDE498FC9003ED1206B0
:1007B3000C9003E9E0FBA3E0FAA3E0F99000011237
:1007C30003BEFB64017038C28E538EFE5389BF5340
:1007D30089CF438E409003EDE0FCA3E0FDA3E0FE50
:1007E300A3E0FF78081205998F8D9003EDA3A3A3CF
:1007F300E0F58BC2AB5389BF538FFDD28E8076EB6E
:1008030064027035538EEF438E01538EF7438E048B
:100813009003EDE0FCA3E0FDA3E0FEA3E0FF780876
:100823001205998FD69003EDA3A3A3E0F5D753AF99
:10083300FB538EF7438E10803C7F02229003E9E046
:10084300FBA3E0FAA3E0F91203A5FF7013900008DD
:100853001203BEB40105438E20801A538EDF801528
:10086300EFB480119000081203BEB40105438780E2
:10087300800353877F9003E9E0FBA3E0FAA3E0F949
:100883009000091203BEB40104D2AC8002C2AC9042
:1008930000071203BEB40104D29C8002C29C9000E4
:1008A3000B1203BE54C0FFE5A2543F4FF5A27F00D5
:1008B300229003E8E064026003020A1690010774C1
:1008C30002F0E4A3F0A3F0A3F0A3F0A3F0A3F0904D
:1008D30003ECF09003ECE0FFC394805014748E2F6C
:1008E300F582E43402F583E4F09003ECE004F08055
:1008F300E2E49003ECF09003ECE0FFC39480501427
:10090300748E2FF582E43401F583E4F09003ECE078
:1009130004F080E29003E9E0FBA3E0FAA3E0F9121C
:1009230003A5FF64C06008EF644060030209D6902A
:10093300000A1203BEB4010543B501800353B5FE9B
:100943001203A5B4C005439A808003539A7F900095
:10095300021205DC7F807E8D7D5B7C001204E890B3
:1009630003ED12060CE4FFFE7D01FC9003EDE0F8BD
:10097300A3E0F9A3E0FAA3E0FBC312058840037FD9
:1009830002229003EDE0F8A3E0F9A3E0FAA3E0FB71
:10099300C3E49BFFE49AFE740199FDE498FC900381
:1009A300ED12060C538EEF538EF7438E049003ED36
:1009B300E0FCA3E0FDA3E0FEA3E0FF7808120599A5
:1009C3008FD69003EDA3A3A3E0F5D753AFFB438EDC
:1009D3001080037F02229003E9E0FBA3E0FAA3E087
:1009E300F99000091203BEB4010543AF018003531C
:1009F300AFFE9000071203BEB40105439A108003B3
:100A0300539AEF90000B1203BE5401FFE5BA54FE54
:030A13004FF5BAE2
:010A160022BD
:10209700900102E0240EF582E43402F583EFF0901C
:1020A7000102E004F0C394804002E4F0900103E0F1
:0720B700700404F0D299222D
:10206F00900109E0248EF582E43402F583EFF090BD
:10207F000109E004F0C394804002E4F090010AE00B
:08208F00700504F012229B22EF
:102263001203A5FF600C122097740129F9E43AFACE
:0322730080EE22D8
:102276001203A5FF600C12206F740129F9E43AFAE3
:0322860080EE22C5
:03003E008FC1224D
:04001600E4F5C1222A
:04001E0043C11022A8
:10008600020390E86480F8E933E83360110460F015
:10009600ED33EC337009E8FCE9FDEAFEEBFF2204E0
:1000A60060DED3EB9FEA9EE99DE8C2E78CF0C2F7DB
:1000B60095F0400CE8CCF8E9CDF9EACEFAEBCFFBA7
:1000C60012035B85D0F05804700320D5B3E80470A2
:1000D600075002B2D502039A92D5EC0460F7E4CC3D
:1000E600C0E0C398F8603B94186008400DD0E0FB70
:1000F600020372E4FBFAC9FC8028E830E406E4C98E
:10010600FBE4CAFCE830E305E4C9CACBFCE85407C3
:100116006010F8C3E913F9EA13FAEB13FBEC13FCCE
:10012600D8F130F52FC3E49CFCEF9BFFEE9AFEED71
:1001360099FDD0E0FBEF4E4D4C701222DB0302031B
:1001460097EC2CFCEF33FFEE33FEED33FDED30E79D
:10015600EB020372EF2BFFEE3AFEED39FDD0E0FB2A
:1001660050130BBB000302039AED13FDEE13FEEFD3
:0801760013FFEC13FC020372FD
:10017E00EC4D6011E8497017ED33EC3304600DE47B
:10018E00FCFFFEFD22E933E8330470F802039012FF
:10019E00035B58046009E4CC248150062850090200
:1001AE00039A284003020397C0E0EB4A7044B980DB
:1001BE0006D0E0FB020386EF4E701CBD8008EBFFFD
:1001CE00EAFEE9FD80EBE98DF0A4FEE5F0020267A0
:1001DE00E9CDF9EAFEEBFFEF89F0A4FCE5F0CE895C
:1001EE00F0A42EFFE435F0CD89F0A42DFEE435F019
:1001FE008067EF4E7005BD80D780C3EF8BF0A4AC47
:10020E00F0EE8BF0A42CFCE435F0F8EF8AF0A42C81
:10021E00E5F038FCE433CB8DF0A42CFCE5F03BF894
:10022E00EE8AF0A42CFCE5F038F8E433CF89F0A484
:10023E002CFCE5F038CF3400CE89F0A42FFFE5F08A
:10024E003EFEE433C98DF0A42EFEE5F039CD8AF0E2
:10025E00A42FFFE5F03EFEE43DFD33D0E0FB50075A
:10026E000BBB000F02039AEC2CFCEF33FFEE33FEB8
:06027E00ED33FD020372E6
:1002840002039AEC5D046005E859047003020390CC
:1002940012035B580460F6EC4860F2EC7004FDFE57
:1002A400FF22C860DB2481C85009C398600250064D
:1002B4000203979850CAF582E9294B4A7005AB822C
:1002C40002038675F0007C1A7880C3EF9BEE9AEDEA
:1002D40099400DC3EF9BFFEE9AFEED99FDE842F0C5
:1002E400DC23ACF0D0E0FFD0E0FED0E0FDAB822018
:1002F400E7101BEB60BAEC2CFCEF33FFEE33FEEDA2
:1003040033FD020372E803F830E705C0F075F0002E
:10031400EF2FFFEE33FEED33FD40B830E7C280AA85
:10032400EDD2E7CD33EC3392D524814006E4FFFED1
:10033400FDFC22FCE4CFCECDCC24E0501174FF8030
:10034400EDC3CC13CCCD13CDCE13CECF13CF0470CD
:07035400F030D5DE02057A4E
:10035B00E9D2E7C933E833F892D5EDD2E7CD33ECE8
:07036B0033FC5002B2D52261
:10037200EC30E7100FBF000C0EBE00080DBD0004EC
:100382000BEB6014A2D5EB13FCED92E7FD2274FF98
:10039200FCFDFEFF22E480F8A2D574FF13FC7D80F1
:0303A200E480EF05
:03000000021BF1EF
:0C1BF100787FE4F6D8FD758120021C38D6
:1003A500BB010689828A83E0225002E722BBFE0256
:0903B500E32289828A83E4932289
:1003BE00BB010CE58229F582E5833AF583E02250F4
:1003CE0006E92582F8E622BBFE06E92582F8E2223E
:0D03DE00E58229F582E5833AF583E4932258
:1003EB00BB010689828A83F0225002F722BBFE01F1
:0203FB00F322EB
:1003FD00F8BB010DE58229F582E5833AF583E8F036
:10040D00225006E92582C8F622BBFE05E92582C8E1
:02041D00F222C9
:10041F00BC000BBE0029EF8DF084FFADF022E4CCC1
:10042F00F875F008EF2FFFEE33FEEC33FCEE9DEC8A
:10043F00984005FCEE9DFE0FD5F0E9E4CEFD22EDD0
:10044F00F8F5F0EE8420D21CFEADF075F008EF2F1A
:10045F00FFED33FD4007985006D5F0F222C398FD0B
:05046F000FD5F0EA22A8
:10047400BB0110E58229F582E5833AF583E0F5F0C6
:10048400A3E0225009E92582F886F008E622BBFEA3
:100494000AE92582F8E2F5F008E222E5832AF583E9
:0804A400E993F5F0A3E99322AE
:1004AC0075F008758200EF2FFFEE33FECD33CDCC07
:1004BC0033CCC58233C5829BED9AEC99E58298408A
:1004CC000CF582EE9BFEED9AFDEC99FC0FD5F0D667
:1004DC00E4CEFBE4CDFAE4CCF9A88222B800C1B991
:1004EC000059BA002DEC8BF084CFCECDFCE5F0CBCF
:1004FC00F97818EF2FFFEE33FEED33FDEC33FCEB08
:10050C0033FB10D703994004EB99FB0FD8E5E4F9C2
:10051C00FA227818EF2FFFEE33FEED33FDEC33FCAF
:10052C00C933C910D7059BE99A4007EC9BFCE99AA3
:10053C00F90FD8E0E4C9FAE4CCFB2275F010EF2FE8
:10054C00FFEE33FEED33FDCC33CCC833C810D707E8
:10055C009BEC9AE899400AED9BFDEC9AFCE899F823
:0E056C000FD5F0DAE4CDFBE4CCFAE4C8F922B6
:0E057A00C3E49FFFE49EFEE49DFDE49CFC2292
:10058800EB9FF5F0EA9E42F0E99D42F0E89C45F0C9
:010598002240
:10059900E8600FECC313FCED13FDEE13FEEF13FF40
:0305A900D8F12264
:1005AC00BB010DE58229F582E5833AF583020655F8
:1005BC005007E92582F8020649BBFE07E92582F8B7
:1005CC00020661E58229F582E5833AF58302066D20
:1005DC00BB010DE58229F582E5833AF58302068A93
:1005EC005007E92582F802067DBBFE07E92582F853
:1005FC00020696E58229F582E5833AF5830206A385
:0C060C00ECF0A3EDF0A3EEF0A3EFF02261
:10061800A8828583F0D083D08212062F12062F126B
:10062800062F12062FE473E493A3C583C5F0C58390
:10063800C8C582C8F0A3C583C5F0C583C8C582C82C
:01064800228F
:101BFD00022332E493A3F8E493A34003F68001F2A9
:101C0D0008DFF48029E493A3F85407240CC8C333E8
:101C1D00C4540F4420C8834004F456800146F6DFB7
:101C2D00E4800B010204081020408090191FE47E0F
:101C3D00019360BCA3FF543F30E509541FFEE493AC
:101C4D00A360010ECF54C025E060A840B8E493A373
:101C5D00FAE493A3F8E493A3C8C582C8CAC583CA9E
:101C6D00F0A3C8C582C8CAC583CADFE9DEE780BE56
:0119E90000FD
:0C064900E6FC08E6FD08E6FE08E6FF22DD
:0C065500E0FCA3E0FDA3E0FEA3E0FF2218
:0C066100E2FC08E2FD08E2FE08E2FF22D5
:10066D00E493FC740193FD740293FE740393FF22D3
:0D067D00E6FB08E6F908E6FA08E6CBF822ED
:0C068A00E0F8A3E0F9A3E0FAA3E0FB22F3
:0D069600E2FB08E2F908E2FA08E2CBF822E4
:1006A300E493F8740193F9740293FA740393FB22AD
:00000001FF
